{
  "_format": "hh-sol-artifact-1",
  "contractName": "Election",
  "sourceName": "contracts/Election.sol",
  "abi": [
    {
      "inputs": [
        {
          "internalType": "string[]",
          "name": "_firstNames",
          "type": "string[]"
        },
        {
          "internalType": "string[]",
          "name": "_lastNames",
          "type": "string[]"
        },
        {
          "internalType": "string[]",
          "name": "_emails",
          "type": "string[]"
        },
        {
          "internalType": "string[]",
          "name": "_genders",
          "type": "string[]"
        },
        {
          "internalType": "string[]",
          "name": "_positions",
          "type": "string[]"
        },
        {
          "internalType": "string[]",
          "name": "_manifestos",
          "type": "string[]"
        }
      ],
      "stateMutability": "nonpayable",
      "type": "constructor"
    },
    {
      "anonymous": false,
      "inputs": [
        {
          "indexed": false,
          "internalType": "uint256",
          "name": "id",
          "type": "uint256"
        },
        {
          "indexed": false,
          "internalType": "string",
          "name": "firstName",
          "type": "string"
        },
        {
          "indexed": false,
          "internalType": "string",
          "name": "lastName",
          "type": "string"
        },
        {
          "indexed": false,
          "internalType": "string",
          "name": "email",
          "type": "string"
        },
        {
          "indexed": false,
          "internalType": "string",
          "name": "gender",
          "type": "string"
        },
        {
          "indexed": false,
          "internalType": "string",
          "name": "position",
          "type": "string"
        },
        {
          "indexed": false,
          "internalType": "string",
          "name": "manifesto",
          "type": "string"
        }
      ],
      "name": "CandidateRegistered",
      "type": "event"
    },
    {
      "anonymous": false,
      "inputs": [
        {
          "indexed": false,
          "internalType": "string",
          "name": "position",
          "type": "string"
        },
        {
          "indexed": false,
          "internalType": "string",
          "name": "winner",
          "type": "string"
        }
      ],
      "name": "ElectionResult",
      "type": "event"
    },
    {
      "anonymous": false,
      "inputs": [
        {
          "indexed": false,
          "internalType": "string",
          "name": "position",
          "type": "string"
        },
        {
          "indexed": false,
          "internalType": "string",
          "name": "winner",
          "type": "string"
        },
        {
          "indexed": false,
          "internalType": "uint256",
          "name": "voteCount",
          "type": "uint256"
        }
      ],
      "name": "ElectionResultss",
      "type": "event"
    },
    {
      "anonymous": false,
      "inputs": [
        {
          "indexed": true,
          "internalType": "address",
          "name": "voterAddress",
          "type": "address"
        },
        {
          "indexed": true,
          "internalType": "uint256",
          "name": "candidateId",
          "type": "uint256"
        }
      ],
      "name": "VoteCast",
      "type": "event"
    },
    {
      "anonymous": false,
      "inputs": [
        {
          "indexed": true,
          "internalType": "address",
          "name": "voterAddress",
          "type": "address"
        },
        {
          "indexed": false,
          "internalType": "string",
          "name": "firstName",
          "type": "string"
        },
        {
          "indexed": false,
          "internalType": "string",
          "name": "lastName",
          "type": "string"
        },
        {
          "indexed": false,
          "internalType": "string",
          "name": "email",
          "type": "string"
        },
        {
          "indexed": false,
          "internalType": "uint256",
          "name": "age",
          "type": "uint256"
        },
        {
          "indexed": false,
          "internalType": "string",
          "name": "gender",
          "type": "string"
        },
        {
          "indexed": false,
          "internalType": "string",
          "name": "nationality",
          "type": "string"
        }
      ],
      "name": "VoterRegistered",
      "type": "event"
    },
    {
      "inputs": [],
      "name": "admin",
      "outputs": [
        {
          "internalType": "address",
          "name": "",
          "type": "address"
        }
      ],
      "stateMutability": "view",
      "type": "function"
    },
    {
      "inputs": [],
      "name": "candidateCount",
      "outputs": [
        {
          "internalType": "uint256",
          "name": "",
          "type": "uint256"
        }
      ],
      "stateMutability": "view",
      "type": "function"
    },
    {
      "inputs": [
        {
          "internalType": "string",
          "name": "",
          "type": "string"
        }
      ],
      "name": "candidateEmailExists",
      "outputs": [
        {
          "internalType": "bool",
          "name": "",
          "type": "bool"
        }
      ],
      "stateMutability": "view",
      "type": "function"
    },
    {
      "inputs": [
        {
          "internalType": "uint256",
          "name": "",
          "type": "uint256"
        }
      ],
      "name": "candidates",
      "outputs": [
        {
          "internalType": "uint256",
          "name": "id",
          "type": "uint256"
        },
        {
          "internalType": "string",
          "name": "firstName",
          "type": "string"
        },
        {
          "internalType": "string",
          "name": "lastName",
          "type": "string"
        },
        {
          "internalType": "string",
          "name": "email",
          "type": "string"
        },
        {
          "internalType": "string",
          "name": "gender",
          "type": "string"
        },
        {
          "internalType": "string",
          "name": "position",
          "type": "string"
        },
        {
          "internalType": "string",
          "name": "manifesto",
          "type": "string"
        },
        {
          "internalType": "uint256",
          "name": "voteCount",
          "type": "uint256"
        },
        {
          "internalType": "bool",
          "name": "registered",
          "type": "bool"
        }
      ],
      "stateMutability": "view",
      "type": "function"
    },
    {
      "inputs": [],
      "name": "electionStarted",
      "outputs": [
        {
          "internalType": "bool",
          "name": "",
          "type": "bool"
        }
      ],
      "stateMutability": "view",
      "type": "function"
    },
    {
      "inputs": [],
      "name": "endElection",
      "outputs": [],
      "stateMutability": "nonpayable",
      "type": "function"
    },
    {
      "inputs": [],
      "name": "getCandidateList",
      "outputs": [
        {
          "components": [
            {
              "internalType": "uint256",
              "name": "id",
              "type": "uint256"
            },
            {
              "internalType": "string",
              "name": "firstName",
              "type": "string"
            },
            {
              "internalType": "string",
              "name": "lastName",
              "type": "string"
            },
            {
              "internalType": "string",
              "name": "email",
              "type": "string"
            },
            {
              "internalType": "string",
              "name": "gender",
              "type": "string"
            },
            {
              "internalType": "string",
              "name": "position",
              "type": "string"
            },
            {
              "internalType": "string",
              "name": "manifesto",
              "type": "string"
            },
            {
              "internalType": "uint256",
              "name": "voteCount",
              "type": "uint256"
            },
            {
              "internalType": "bool",
              "name": "registered",
              "type": "bool"
            },
            {
              "internalType": "address[]",
              "name": "votersWhoVotedForCandidate",
              "type": "address[]"
            }
          ],
          "internalType": "struct Election.Candidate[]",
          "name": "",
          "type": "tuple[]"
        }
      ],
      "stateMutability": "view",
      "type": "function"
    },
    {
      "inputs": [
        {
          "internalType": "uint256",
          "name": "",
          "type": "uint256"
        }
      ],
      "name": "positions",
      "outputs": [
        {
          "internalType": "string",
          "name": "",
          "type": "string"
        }
      ],
      "stateMutability": "view",
      "type": "function"
    },
    {
      "inputs": [
        {
          "internalType": "string",
          "name": "_firstName",
          "type": "string"
        },
        {
          "internalType": "string",
          "name": "_lastName",
          "type": "string"
        },
        {
          "internalType": "string",
          "name": "_email",
          "type": "string"
        },
        {
          "internalType": "string",
          "name": "_gender",
          "type": "string"
        },
        {
          "internalType": "string",
          "name": "_position",
          "type": "string"
        },
        {
          "internalType": "string",
          "name": "_manifesto",
          "type": "string"
        }
      ],
      "name": "registerCandidate",
      "outputs": [],
      "stateMutability": "nonpayable",
      "type": "function"
    },
    {
      "inputs": [
        {
          "internalType": "string",
          "name": "_firstName",
          "type": "string"
        },
        {
          "internalType": "string",
          "name": "_lastName",
          "type": "string"
        },
        {
          "internalType": "string",
          "name": "_email",
          "type": "string"
        },
        {
          "internalType": "uint256",
          "name": "_age",
          "type": "uint256"
        },
        {
          "internalType": "string",
          "name": "_gender",
          "type": "string"
        },
        {
          "internalType": "string",
          "name": "_nationality",
          "type": "string"
        }
      ],
      "name": "registerVoter",
      "outputs": [],
      "stateMutability": "nonpayable",
      "type": "function"
    },
    {
      "inputs": [],
      "name": "startElection",
      "outputs": [],
      "stateMutability": "nonpayable",
      "type": "function"
    },
    {
      "inputs": [
        {
          "internalType": "uint256",
          "name": "_candidateId",
          "type": "uint256"
        }
      ],
      "name": "vote",
      "outputs": [],
      "stateMutability": "nonpayable",
      "type": "function"
    },
    {
      "inputs": [
        {
          "internalType": "string",
          "name": "",
          "type": "string"
        }
      ],
      "name": "voterEmailExists",
      "outputs": [
        {
          "internalType": "bool",
          "name": "",
          "type": "bool"
        }
      ],
      "stateMutability": "view",
      "type": "function"
    },
    {
      "inputs": [
        {
          "internalType": "address",
          "name": "",
          "type": "address"
        }
      ],
      "name": "voters",
      "outputs": [
        {
          "internalType": "string",
          "name": "firstName",
          "type": "string"
        },
        {
          "internalType": "string",
          "name": "lastName",
          "type": "string"
        },
        {
          "internalType": "string",
          "name": "email",
          "type": "string"
        },
        {
          "internalType": "uint256",
          "name": "age",
          "type": "uint256"
        },
        {
          "internalType": "string",
          "name": "gender",
          "type": "string"
        },
        {
          "internalType": "string",
          "name": "nationality",
          "type": "string"
        },
        {
          "internalType": "bool",
          "name": "voted",
          "type": "bool"
        }
      ],
      "stateMutability": "view",
      "type": "function"
    }
  ],
  "bytecode": "0x608060405260405180606001604052806040518060400160405280600981526020017f507265736964656e74000000000000000000000000000000000000000000000081525081526020016040518060400160405280600e81526020017f5669636520507265736964656e7400000000000000000000000000000000000081525081526020016040518060400160405280600781526020017f53656e61746f72000000000000000000000000000000000000000000000000008152508152506006906003620000d09291906200050f565b50348015620000de57600080fd5b50604051620045913803806200459183398181016040528101906200010491906200091a565b336000806101000a81548173ffffffffffffffffffffffffffffffffffffffff021916908373ffffffffffffffffffffffffffffffffffffffff1602179055508451865114801562000157575083518551145b801562000165575082518451145b801562000173575081518351145b801562000181575080518251145b620001c3576040517f08c379a0000000000000000000000000000000000000000000000000000000008152600401620001ba9062000ad1565b60405180910390fd5b60005b8651811015620004fa5760606001604051806101400160405280600185620001ef919062000b2c565b81526020018a85815181106200020a576200020962000b67565b5b602002602001015181526020018985815181106200022d576200022c62000b67565b5b6020026020010151815260200188858151811062000250576200024f62000b67565b5b6020026020010151815260200187858151811062000273576200027262000b67565b5b6020026020010151815260200186858151811062000296576200029562000b67565b5b60200260200101518152602001858581518110620002b957620002b862000b67565b5b60200260200101518152602001600081526020016001151581526020018381525090806001815401808255809150506001900390600052602060002090600a020160009091909190915060008201518160000155602082015181600101908162000324919062000dd7565b5060408201518160020190816200033c919062000dd7565b50606082015181600301908162000354919062000dd7565b5060808201518160040190816200036c919062000dd7565b5060a082015181600501908162000384919062000dd7565b5060c08201518160060190816200039c919062000dd7565b5060e082015181600701556101008201518160080160006101000a81548160ff021916908315150217905550610120820151816009019080519060200190620003e79291906200056f565b5050507fcdc63be4a9722ee4b9b2d4e39199d658bd01d6a91201c97399dd7926ad13bd006001836200041a919062000b2c565b89848151811062000430576200042f62000b67565b5b60200260200101518985815181106200044e576200044d62000b67565b5b60200260200101518986815181106200046c576200046b62000b67565b5b60200260200101518987815181106200048a576200048962000b67565b5b6020026020010151898881518110620004a857620004a762000b67565b5b6020026020010151898981518110620004c657620004c562000b67565b5b6020026020010151604051620004e3979695949392919062000f10565b60405180910390a1508080600101915050620001c6565b50855160058190555050505050505062000fb7565b8280548282559060005260206000209081019282156200055c579160200282015b828111156200055b5782518290816200054a919062000dd7565b509160200191906001019062000530565b5b5090506200056b9190620005fe565b5090565b828054828255906000526020600020908101928215620005eb579160200282015b82811115620005ea5782518260006101000a81548173ffffffffffffffffffffffffffffffffffffffff021916908373ffffffffffffffffffffffffffffffffffffffff1602179055509160200191906001019062000590565b5b509050620005fa919062000626565b5090565b5b8082111562000622576000818162000618919062000645565b50600101620005ff565b5090565b5b808211156200064157600081600090555060010162000627565b5090565b508054620006539062000bd0565b6000825580601f1062000667575062000688565b601f01602090049060005260206000209081019062000687919062000626565b5b50565b6000604051905090565b600080fd5b600080fd5b600080fd5b6000601f19601f8301169050919050565b7f4e487b7100000000000000000000000000000000000000000000000000000000600052604160045260246000fd5b620006ef82620006a4565b810181811067ffffffffffffffff82111715620007115762000710620006b5565b5b80604052505050565b6000620007266200068b565b9050620007348282620006e4565b919050565b600067ffffffffffffffff821115620007575762000756620006b5565b5b602082029050602081019050919050565b600080fd5b600080fd5b600067ffffffffffffffff82111562000790576200078f620006b5565b5b6200079b82620006a4565b9050602081019050919050565b60005b83811015620007c8578082015181840152602081019050620007ab565b60008484015250505050565b6000620007eb620007e58462000772565b6200071a565b9050828152602081018484840111156200080a57620008096200076d565b5b62000817848285620007a8565b509392505050565b600082601f8301126200083757620008366200069f565b5b815162000849848260208601620007d4565b91505092915050565b600062000869620008638462000739565b6200071a565b905080838252602082019050602084028301858111156200088f576200088e62000768565b5b835b81811015620008dd57805167ffffffffffffffff811115620008b857620008b76200069f565b5b808601620008c789826200081f565b8552602085019450505060208101905062000891565b5050509392505050565b600082601f830112620008ff57620008fe6200069f565b5b81516200091184826020860162000852565b91505092915050565b60008060008060008060c087890312156200093a576200093962000695565b5b600087015167ffffffffffffffff8111156200095b576200095a6200069a565b5b6200096989828a01620008e7565b965050602087015167ffffffffffffffff8111156200098d576200098c6200069a565b5b6200099b89828a01620008e7565b955050604087015167ffffffffffffffff811115620009bf57620009be6200069a565b5b620009cd89828a01620008e7565b945050606087015167ffffffffffffffff811115620009f157620009f06200069a565b5b620009ff89828a01620008e7565b935050608087015167ffffffffffffffff81111562000a235762000a226200069a565b5b62000a3189828a01620008e7565b92505060a087015167ffffffffffffffff81111562000a555762000a546200069a565b5b62000a6389828a01620008e7565b9150509295509295509295565b600082825260208201905092915050565b7f5f5f5f496e76616c696420696e707574206c656e677468735f5f5f0000000000600082015250565b600062000ab9601b8362000a70565b915062000ac68262000a81565b602082019050919050565b6000602082019050818103600083015262000aec8162000aaa565b9050919050565b6000819050919050565b7f4e487b7100000000000000000000000000000000000000000000000000000000600052601160045260246000fd5b600062000b398262000af3565b915062000b468362000af3565b925082820190508082111562000b615762000b6062000afd565b5b92915050565b7f4e487b7100000000000000000000000000000000000000000000000000000000600052603260045260246000fd5b600081519050919050565b7f4e487b7100000000000000000000000000000000000000000000000000000000600052602260045260246000fd5b6000600282049050600182168062000be957607f821691505b60208210810362000bff5762000bfe62000ba1565b5b50919050565b60008190508160005260206000209050919050565b60006020601f8301049050919050565b600082821b905092915050565b60006008830262000c697fffffffffffffffffffffffffffffffffffffffffffffffffffffffffffffffff8262000c2a565b62000c75868362000c2a565b95508019841693508086168417925050509392505050565b6000819050919050565b600062000cb862000cb262000cac8462000af3565b62000c8d565b62000af3565b9050919050565b6000819050919050565b62000cd48362000c97565b62000cec62000ce38262000cbf565b84845462000c37565b825550505050565b600090565b62000d0362000cf4565b62000d1081848462000cc9565b505050565b5b8181101562000d385762000d2c60008262000cf9565b60018101905062000d16565b5050565b601f82111562000d875762000d518162000c05565b62000d5c8462000c1a565b8101602085101562000d6c578190505b62000d8462000d7b8562000c1a565b83018262000d15565b50505b505050565b600082821c905092915050565b600062000dac6000198460080262000d8c565b1980831691505092915050565b600062000dc7838362000d99565b9150826002028217905092915050565b62000de28262000b96565b67ffffffffffffffff81111562000dfe5762000dfd620006b5565b5b62000e0a825462000bd0565b62000e1782828562000d3c565b600060209050601f83116001811462000e4f576000841562000e3a578287015190505b62000e46858262000db9565b86555062000eb6565b601f19841662000e5f8662000c05565b60005b8281101562000e895784890151825560018201915060208501945060208101905062000e62565b8683101562000ea9578489015162000ea5601f89168262000d99565b8355505b6001600288020188555050505b505050505050565b62000ec98162000af3565b82525050565b600062000edc8262000b96565b62000ee8818562000a70565b935062000efa818560208601620007a8565b62000f0581620006a4565b840191505092915050565b600060e08201905062000f27600083018a62000ebe565b818103602083015262000f3b818962000ecf565b9050818103604083015262000f51818862000ecf565b9050818103606083015262000f67818762000ecf565b9050818103608083015262000f7d818662000ecf565b905081810360a083015262000f93818562000ecf565b905081810360c083015262000fa9818462000ecf565b905098975050505050505050565b6135ca8062000fc76000396000f3fe608060405234801561001057600080fd5b50600436106100ea5760003560e01c8063a9a981a31161008c578063dec963d511610066578063dec963d514610245578063f1a6830214610275578063f851a44014610291578063fdbc4006146102af576100ea565b8063a9a981a3146101ed578063b70ddeed1461020b578063d5346da114610227576100ea565b806362d73eb8116100c857806362d73eb81461014d57806399fbab8814610157578063a3ec138d14610187578063a5499a31146101bd576100ea565b80630121b93f146100ef5780633477ee2e1461010b57806359f7846814610143575b600080fd5b61010960048036038101906101049190611ec3565b6102cd565b005b61012560048036038101906101209190611ec3565b610830565b60405161013a99989796959493929190611faa565b60405180910390f35b61014b610bcb565b005b610155610d0d565b005b610171600480360381019061016c9190611ec3565b610db8565b60405161017e9190612061565b60405180910390f35b6101a1600480360381019061019c91906120e1565b610e64565b6040516101b4979695949392919061210e565b60405180910390f35b6101d760048036038101906101d291906122d5565b61115b565b6040516101e4919061231e565b60405180910390f35b6101f5611191565b6040516102029190612339565b60405180910390f35b61022560048036038101906102209190612354565b611197565b005b61022f6114c8565b60405161023c919061231e565b60405180910390f35b61025f600480360381019061025a91906122d5565b6114db565b60405161026c919061231e565b60405180910390f35b61028f600480360381019061028a919061246d565b611511565b005b610299611925565b6040516102a691906125b1565b60405180910390f35b6102b7611949565b6040516102c491906128b8565b60405180910390f35b600060149054906101000a900460ff1661031c576040517f08c379a00000000000000000000000000000000000000000000000000000000081526004016103139061294c565b60405180910390fd5b60008111801561033157506001805490508111155b610370576040517f08c379a0000000000000000000000000000000000000000000000000000000008152600401610367906129b8565b60405180910390fd5b6001808261037e9190612a07565b8154811061038f5761038e612a3b565b5b90600052602060002090600a020160080160009054906101000a900460ff166103ed576040517f08c379a00000000000000000000000000000000000000000000000000000000081526004016103e490612adc565b60405180910390fd5b6000600260003373ffffffffffffffffffffffffffffffffffffffff1673ffffffffffffffffffffffffffffffffffffffff168152602001908152602001600020600001805461043c90612b2b565b90501161047e576040517f08c379a000000000000000000000000000000000000000000000000000000000815260040161047590612bce565b60405180910390fd5b60006001808361048e9190612a07565b8154811061049f5761049e612a3b565b5b90600052602060002090600a020160050180546104bb90612b2b565b80601f01602080910402602001604051908101604052809291908181526020018280546104e790612b2b565b80156105345780601f1061050957610100808354040283529160200191610534565b820191906000526020600020905b81548152906001019060200180831161051757829003601f168201915b50505050509050600260003373ffffffffffffffffffffffffffffffffffffffff1673ffffffffffffffffffffffffffffffffffffffff1681526020019081526020016000206006018160405161058b9190612c2a565b908152602001604051809103902060009054906101000a900460ff1615806106005750600260003373ffffffffffffffffffffffffffffffffffffffff1673ffffffffffffffffffffffffffffffffffffffff16815260200190815260200160002060070160009054906101000a900460ff16155b61063f576040517f08c379a000000000000000000000000000000000000000000000000000000000815260040161063690612cb3565b60405180910390fd5b6001808361064d9190612a07565b8154811061065e5761065d612a3b565b5b90600052602060002090600a0201600701600081548092919061068090612cd3565b9190505550600180836106939190612a07565b815481106106a4576106a3612a3b565b5b90600052602060002090600a0201600901339080600181540180825580915050600190039060005260206000200160009091909190916101000a81548173ffffffffffffffffffffffffffffffffffffffff021916908373ffffffffffffffffffffffffffffffffffffffff1602179055506001600260003373ffffffffffffffffffffffffffffffffffffffff1673ffffffffffffffffffffffffffffffffffffffff168152602001908152602001600020600601826040516107689190612c2a565b908152602001604051809103902060006101000a81548160ff0219169083151502179055506001600260003373ffffffffffffffffffffffffffffffffffffffff1673ffffffffffffffffffffffffffffffffffffffff16815260200190815260200160002060070160006101000a81548160ff021916908315150217905550813373ffffffffffffffffffffffffffffffffffffffff167fa36cc2bebb74db33e9f88110a07ef56e1b31b24b4c4f51b54b1664266e29f45b60405160405180910390a35050565b6001818154811061084057600080fd5b90600052602060002090600a020160009150905080600001549080600101805461086990612b2b565b80601f016020809104026020016040519081016040528092919081815260200182805461089590612b2b565b80156108e25780601f106108b7576101008083540402835291602001916108e2565b820191906000526020600020905b8154815290600101906020018083116108c557829003601f168201915b5050505050908060020180546108f790612b2b565b80601f016020809104026020016040519081016040528092919081815260200182805461092390612b2b565b80156109705780601f1061094557610100808354040283529160200191610970565b820191906000526020600020905b81548152906001019060200180831161095357829003601f168201915b50505050509080600301805461098590612b2b565b80601f01602080910402602001604051908101604052809291908181526020018280546109b190612b2b565b80156109fe5780601f106109d3576101008083540402835291602001916109fe565b820191906000526020600020905b8154815290600101906020018083116109e157829003601f168201915b505050505090806004018054610a1390612b2b565b80601f0160208091040260200160405190810160405280929190818152602001828054610a3f90612b2b565b8015610a8c5780601f10610a6157610100808354040283529160200191610a8c565b820191906000526020600020905b815481529060010190602001808311610a6f57829003601f168201915b505050505090806005018054610aa190612b2b565b80601f0160208091040260200160405190810160405280929190818152602001828054610acd90612b2b565b8015610b1a5780601f10610aef57610100808354040283529160200191610b1a565b820191906000526020600020905b815481529060010190602001808311610afd57829003601f168201915b505050505090806006018054610b2f90612b2b565b80601f0160208091040260200160405190810160405280929190818152602001828054610b5b90612b2b565b8015610ba85780601f10610b7d57610100808354040283529160200191610ba8565b820191906000526020600020905b815481529060010190602001808311610b8b57829003601f168201915b5050505050908060070154908060080160009054906101000a900460ff16905089565b60008054906101000a900473ffffffffffffffffffffffffffffffffffffffff1673ffffffffffffffffffffffffffffffffffffffff163373ffffffffffffffffffffffffffffffffffffffff1614610c59576040517f08c379a0000000000000000000000000000000000000000000000000000000008152600401610c5090612d8d565b60405180910390fd5b600060149054906101000a900460ff16610ca8576040517f08c379a0000000000000000000000000000000000000000000000000000000008152600401610c9f9061294c565b60405180910390fd5b60005b600180549050811015610cf057600060018281548110610cce57610ccd612a3b565b5b90600052602060002090600a0201600701819055508080600101915050610cab565b5060008060146101000a81548160ff021916908315150217905550565b60008054906101000a900473ffffffffffffffffffffffffffffffffffffffff1673ffffffffffffffffffffffffffffffffffffffff163373ffffffffffffffffffffffffffffffffffffffff1614610d9b576040517f08c379a0000000000000000000000000000000000000000000000000000000008152600401610d9290612d8d565b60405180910390fd5b6001600060146101000a81548160ff021916908315150217905550565b60068181548110610dc857600080fd5b906000526020600020016000915090508054610de390612b2b565b80601f0160208091040260200160405190810160405280929190818152602001828054610e0f90612b2b565b8015610e5c5780601f10610e3157610100808354040283529160200191610e5c565b820191906000526020600020905b815481529060010190602001808311610e3f57829003601f168201915b505050505081565b6002602052806000526040600020600091509050806000018054610e8790612b2b565b80601f0160208091040260200160405190810160405280929190818152602001828054610eb390612b2b565b8015610f005780601f10610ed557610100808354040283529160200191610f00565b820191906000526020600020905b815481529060010190602001808311610ee357829003601f168201915b505050505090806001018054610f1590612b2b565b80601f0160208091040260200160405190810160405280929190818152602001828054610f4190612b2b565b8015610f8e5780601f10610f6357610100808354040283529160200191610f8e565b820191906000526020600020905b815481529060010190602001808311610f7157829003601f168201915b505050505090806002018054610fa390612b2b565b80601f0160208091040260200160405190810160405280929190818152602001828054610fcf90612b2b565b801561101c5780601f10610ff15761010080835404028352916020019161101c565b820191906000526020600020905b815481529060010190602001808311610fff57829003601f168201915b50505050509080600301549080600401805461103790612b2b565b80601f016020809104026020016040519081016040528092919081815260200182805461106390612b2b565b80156110b05780601f10611085576101008083540402835291602001916110b0565b820191906000526020600020905b81548152906001019060200180831161109357829003601f168201915b5050505050908060050180546110c590612b2b565b80601f01602080910402602001604051908101604052809291908181526020018280546110f190612b2b565b801561113e5780601f106111135761010080835404028352916020019161113e565b820191906000526020600020905b81548152906001019060200180831161112157829003601f168201915b5050505050908060070160009054906101000a900460ff16905087565b6003818051602081018201805184825260208301602085012081835280955050505050506000915054906101000a900460ff1681565b60055481565b600086511180156111a9575060008551115b6111e8576040517f08c379a00000000000000000000000000000000000000000000000000000000081526004016111df90612e1f565b60405180910390fd5b600084511161122c576040517f08c379a000000000000000000000000000000000000000000000000000000000815260040161122390612e8b565b60405180910390fd5b6012831015611270576040517f08c379a000000000000000000000000000000000000000000000000000000000815260040161126790612f1d565b60405180910390fd5b6004846040516112809190612c2a565b908152602001604051809103902060009054906101000a900460ff16156112dc576040517f08c379a00000000000000000000000000000000000000000000000000000000081526004016112d390612faf565b60405180910390fd5b6000600260003373ffffffffffffffffffffffffffffffffffffffff1673ffffffffffffffffffffffffffffffffffffffff168152602001908152602001600020600001805461132b90612b2b565b90501461136d576040517f08c379a000000000000000000000000000000000000000000000000000000000815260040161136490613041565b60405180910390fd5b6000600260003373ffffffffffffffffffffffffffffffffffffffff1673ffffffffffffffffffffffffffffffffffffffff1681526020019081526020016000209050868160000190816113c1919061320d565b50858160010190816113d3919061320d565b50848160020190816113e5919061320d565b5083816003018190555082816004019081611400919061320d565b5081816005019081611412919061320d565b5060008160070160006101000a81548160ff02191690831515021790555060016004866040516114429190612c2a565b908152602001604051809103902060006101000a81548160ff0219169083151502179055503373ffffffffffffffffffffffffffffffffffffffff167fccad38708687df5dfce467bfbba52384231a28b8bd086df4175aa538a803f96b8888888888886040516114b7969594939291906132df565b60405180910390a250505050505050565b600060149054906101000a900460ff1681565b6004818051602081018201805184825260208301602085012081835280955050505050506000915054906101000a900460ff1681565b60008054906101000a900473ffffffffffffffffffffffffffffffffffffffff1673ffffffffffffffffffffffffffffffffffffffff163373ffffffffffffffffffffffffffffffffffffffff161461159f576040517f08c379a000000000000000000000000000000000000000000000000000000000815260040161159690612d8d565b60405180910390fd5b816000805b60068054905081101561163757826040516020016115c29190612c2a565b60405160208183030381529060405280519060200120600682815481106115ec576115eb612a3b565b5b9060005260206000200160405160200161160691906133e6565b604051602081830303815290604052805190602001200361162a5760019150611637565b80806001019150506115a4565b5080611678576040517f08c379a000000000000000000000000000000000000000000000000000000000815260040161166f90613449565b60405180910390fd5b600060149054906101000a900460ff16156116c8576040517f08c379a00000000000000000000000000000000000000000000000000000000081526004016116bf906134db565b60405180910390fd5b6003866040516116d89190612c2a565b908152602001604051809103902060009054906101000a900460ff1615611734576040517f08c379a000000000000000000000000000000000000000000000000000000000815260040161172b90612faf565b60405180910390fd5b6005600081548092919061174790612cd3565b91905055506060600160405180610140016040528060055481526020018b81526020018a8152602001898152602001888152602001878152602001868152602001600081526020016001151581526020018381525090806001815401808255809150506001900390600052602060002090600a02016000909190919091506000820151816000015560208201518160010190816117e4919061320d565b5060408201518160020190816117fa919061320d565b506060820151816003019081611810919061320d565b506080820151816004019081611826919061320d565b5060a082015181600501908161183c919061320d565b5060c0820151816006019081611852919061320d565b5060e082015181600701556101008201518160080160006101000a81548160ff02191690831515021790555061012082015181600901908051906020019061189b929190611dd2565b50505060016003886040516118b09190612c2a565b908152602001604051809103902060006101000a81548160ff0219169083151502179055507fcdc63be4a9722ee4b9b2d4e39199d658bd01d6a91201c97399dd7926ad13bd006005548a8a8a8a8a8a60405161191297969594939291906134fb565b60405180910390a1505050505050505050565b60008054906101000a900473ffffffffffffffffffffffffffffffffffffffff1681565b60606001805480602002602001604051908101604052809291908181526020016000905b82821015611dc957838290600052602060002090600a020160405180610140016040529081600082015481526020016001820180546119ab90612b2b565b80601f01602080910402602001604051908101604052809291908181526020018280546119d790612b2b565b8015611a245780601f106119f957610100808354040283529160200191611a24565b820191906000526020600020905b815481529060010190602001808311611a0757829003601f168201915b50505050508152602001600282018054611a3d90612b2b565b80601f0160208091040260200160405190810160405280929190818152602001828054611a6990612b2b565b8015611ab65780601f10611a8b57610100808354040283529160200191611ab6565b820191906000526020600020905b815481529060010190602001808311611a9957829003601f168201915b50505050508152602001600382018054611acf90612b2b565b80601f0160208091040260200160405190810160405280929190818152602001828054611afb90612b2b565b8015611b485780601f10611b1d57610100808354040283529160200191611b48565b820191906000526020600020905b815481529060010190602001808311611b2b57829003601f168201915b50505050508152602001600482018054611b6190612b2b565b80601f0160208091040260200160405190810160405280929190818152602001828054611b8d90612b2b565b8015611bda5780601f10611baf57610100808354040283529160200191611bda565b820191906000526020600020905b815481529060010190602001808311611bbd57829003601f168201915b50505050508152602001600582018054611bf390612b2b565b80601f0160208091040260200160405190810160405280929190818152602001828054611c1f90612b2b565b8015611c6c5780601f10611c4157610100808354040283529160200191611c6c565b820191906000526020600020905b815481529060010190602001808311611c4f57829003601f168201915b50505050508152602001600682018054611c8590612b2b565b80601f0160208091040260200160405190810160405280929190818152602001828054611cb190612b2b565b8015611cfe5780601f10611cd357610100808354040283529160200191611cfe565b820191906000526020600020905b815481529060010190602001808311611ce157829003601f168201915b50505050508152602001600782015481526020016008820160009054906101000a900460ff1615151515815260200160098201805480602002602001604051908101604052809291908181526020018280548015611db157602002820191906000526020600020905b8160009054906101000a900473ffffffffffffffffffffffffffffffffffffffff1673ffffffffffffffffffffffffffffffffffffffff1681526020019060010190808311611d67575b5050505050815250508152602001906001019061196d565b50505050905090565b828054828255906000526020600020908101928215611e4b579160200282015b82811115611e4a5782518260006101000a81548173ffffffffffffffffffffffffffffffffffffffff021916908373ffffffffffffffffffffffffffffffffffffffff16021790555091602001919060010190611df2565b5b509050611e589190611e5c565b5090565b5b80821115611e75576000816000905550600101611e5d565b5090565b6000604051905090565b600080fd5b600080fd5b6000819050919050565b611ea081611e8d565b8114611eab57600080fd5b50565b600081359050611ebd81611e97565b92915050565b600060208284031215611ed957611ed8611e83565b5b6000611ee784828501611eae565b91505092915050565b611ef981611e8d565b82525050565b600081519050919050565b600082825260208201905092915050565b60005b83811015611f39578082015181840152602081019050611f1e565b60008484015250505050565b6000601f19601f8301169050919050565b6000611f6182611eff565b611f6b8185611f0a565b9350611f7b818560208601611f1b565b611f8481611f45565b840191505092915050565b60008115159050919050565b611fa481611f8f565b82525050565b600061012082019050611fc0600083018c611ef0565b8181036020830152611fd2818b611f56565b90508181036040830152611fe6818a611f56565b90508181036060830152611ffa8189611f56565b9050818103608083015261200e8188611f56565b905081810360a08301526120228187611f56565b905081810360c08301526120368186611f56565b905061204560e0830185611ef0565b612053610100830184611f9b565b9a9950505050505050505050565b6000602082019050818103600083015261207b8184611f56565b905092915050565b600073ffffffffffffffffffffffffffffffffffffffff82169050919050565b60006120ae82612083565b9050919050565b6120be816120a3565b81146120c957600080fd5b50565b6000813590506120db816120b5565b92915050565b6000602082840312156120f7576120f6611e83565b5b6000612105848285016120cc565b91505092915050565b600060e0820190508181036000830152612128818a611f56565b9050818103602083015261213c8189611f56565b905081810360408301526121508188611f56565b905061215f6060830187611ef0565b81810360808301526121718186611f56565b905081810360a08301526121858185611f56565b905061219460c0830184611f9b565b98975050505050505050565b600080fd5b600080fd5b7f4e487b7100000000000000000000000000000000000000000000000000000000600052604160045260246000fd5b6121e282611f45565b810181811067ffffffffffffffff82111715612201576122006121aa565b5b80604052505050565b6000612214611e79565b905061222082826121d9565b919050565b600067ffffffffffffffff8211156122405761223f6121aa565b5b61224982611f45565b9050602081019050919050565b82818337600083830152505050565b600061227861227384612225565b61220a565b905082815260208101848484011115612294576122936121a5565b5b61229f848285612256565b509392505050565b600082601f8301126122bc576122bb6121a0565b5b81356122cc848260208601612265565b91505092915050565b6000602082840312156122eb576122ea611e83565b5b600082013567ffffffffffffffff81111561230957612308611e88565b5b612315848285016122a7565b91505092915050565b60006020820190506123336000830184611f9b565b92915050565b600060208201905061234e6000830184611ef0565b92915050565b60008060008060008060c0878903121561237157612370611e83565b5b600087013567ffffffffffffffff81111561238f5761238e611e88565b5b61239b89828a016122a7565b965050602087013567ffffffffffffffff8111156123bc576123bb611e88565b5b6123c889828a016122a7565b955050604087013567ffffffffffffffff8111156123e9576123e8611e88565b5b6123f589828a016122a7565b945050606061240689828a01611eae565b935050608087013567ffffffffffffffff81111561242757612426611e88565b5b61243389828a016122a7565b92505060a087013567ffffffffffffffff81111561245457612453611e88565b5b61246089828a016122a7565b9150509295509295509295565b60008060008060008060c0878903121561248a57612489611e83565b5b600087013567ffffffffffffffff8111156124a8576124a7611e88565b5b6124b489828a016122a7565b965050602087013567ffffffffffffffff8111156124d5576124d4611e88565b5b6124e189828a016122a7565b955050604087013567ffffffffffffffff81111561250257612501611e88565b5b61250e89828a016122a7565b945050606087013567ffffffffffffffff81111561252f5761252e611e88565b5b61253b89828a016122a7565b935050608087013567ffffffffffffffff81111561255c5761255b611e88565b5b61256889828a016122a7565b92505060a087013567ffffffffffffffff81111561258957612588611e88565b5b61259589828a016122a7565b9150509295509295509295565b6125ab816120a3565b82525050565b60006020820190506125c660008301846125a2565b92915050565b600081519050919050565b600082825260208201905092915050565b6000819050602082019050919050565b61260181611e8d565b82525050565b600082825260208201905092915050565b600061262382611eff565b61262d8185612607565b935061263d818560208601611f1b565b61264681611f45565b840191505092915050565b61265a81611f8f565b82525050565b600081519050919050565b600082825260208201905092915050565b6000819050602082019050919050565b612695816120a3565b82525050565b60006126a7838361268c565b60208301905092915050565b6000602082019050919050565b60006126cb82612660565b6126d5818561266b565b93506126e08361267c565b8060005b838110156127115781516126f8888261269b565b9750612703836126b3565b9250506001810190506126e4565b5085935050505092915050565b60006101408301600083015161273760008601826125f8565b506020830151848203602086015261274f8282612618565b915050604083015184820360408601526127698282612618565b915050606083015184820360608601526127838282612618565b9150506080830151848203608086015261279d8282612618565b91505060a083015184820360a08601526127b78282612618565b91505060c083015184820360c08601526127d18282612618565b91505060e08301516127e660e08601826125f8565b506101008301516127fb610100860182612651565b5061012083015184820361012086015261281582826126c0565b9150508091505092915050565b600061282e838361271e565b905092915050565b6000602082019050919050565b600061284e826125cc565b61285881856125d7565b93508360208202850161286a856125e8565b8060005b858110156128a657848403895281516128878582612822565b945061289283612836565b925060208a0199505060018101905061286e565b50829750879550505050505092915050565b600060208201905081810360008301526128d28184612843565b905092915050565b7f5f5f5f456c656374696f6e20686173206e6f742073746172746564207965745f60008201527f5f5f000000000000000000000000000000000000000000000000000000000000602082015250565b6000612936602283611f0a565b9150612941826128da565b604082019050919050565b6000602082019050818103600083015261296581612929565b9050919050565b7f5f5f5f496e76616c69642063616e6469646174652049445f5f5f000000000000600082015250565b60006129a2601a83611f0a565b91506129ad8261296c565b602082019050919050565b600060208201905081810360008301526129d181612995565b9050919050565b7f4e487b7100000000000000000000000000000000000000000000000000000000600052601160045260246000fd5b6000612a1282611e8d565b9150612a1d83611e8d565b9250828203905081811115612a3557612a346129d8565b5b92915050565b7f4e487b7100000000000000000000000000000000000000000000000000000000600052603260045260246000fd5b7f5f5f5f43616e646964617465206e6f7420666f756e64206f72206e6f7420726560008201527f67697374657265645f5f5f000000000000000000000000000000000000000000602082015250565b6000612ac6602b83611f0a565b9150612ad182612a6a565b604082019050919050565b60006020820190508181036000830152612af581612ab9565b9050919050565b7f4e487b7100000000000000000000000000000000000000000000000000000000600052602260045260246000fd5b60006002820490506001821680612b4357607f821691505b602082108103612b5657612b55612afc565b5b50919050565b7f5f5f5f596f7520617265206e6f742061207265676973746572656420766f746560008201527f725f5f5f00000000000000000000000000000000000000000000000000000000602082015250565b6000612bb8602483611f0a565b9150612bc382612b5c565b604082019050919050565b60006020820190508181036000830152612be781612bab565b9050919050565b600081905092915050565b6000612c0482611eff565b612c0e8185612bee565b9350612c1e818560208601611f1b565b80840191505092915050565b6000612c368284612bf9565b915081905092915050565b7f5f5f5f596f75206861766520616c726561647920766f74656420666f7220612060008201527f63616e64696461746520696e207468697320706f736974696f6e5f5f5f000000602082015250565b6000612c9d603d83611f0a565b9150612ca882612c41565b604082019050919050565b60006020820190508181036000830152612ccc81612c90565b9050919050565b6000612cde82611e8d565b91507fffffffffffffffffffffffffffffffffffffffffffffffffffffffffffffffff8203612d1057612d0f6129d8565b5b600182019050919050565b7f5f5f5f4f6e6c792061646d696e2063616e20706572666f726d2074686973206f60008201527f7065726174696f6e5f5f5f000000000000000000000000000000000000000000602082015250565b6000612d77602b83611f0a565b9150612d8282612d1b565b604082019050919050565b60006020820190508181036000830152612da681612d6a565b9050919050565b7f5f5f5f4669727374206e616d6520616e64206c617374206e616d652063616e6e60008201527f6f7420626520656d7074795f5f5f000000000000000000000000000000000000602082015250565b6000612e09602e83611f0a565b9150612e1482612dad565b604082019050919050565b60006020820190508181036000830152612e3881612dfc565b9050919050565b7f5f5f5f456d61696c2063616e6e6f7420626520656d7074795f5f5f0000000000600082015250565b6000612e75601b83611f0a565b9150612e8082612e3f565b602082019050919050565b60006020820190508181036000830152612ea481612e68565b9050919050565b7f5f5f5f416765206d75737420626520657175616c20746f206f7220677265617460008201527f6572207468616e2031385f5f5f00000000000000000000000000000000000000602082015250565b6000612f07602d83611f0a565b9150612f1282612eab565b604082019050919050565b60006020820190508181036000830152612f3681612efa565b9050919050565b7f5f5f5f456d61696c206164647265737320616c7265616479206578697374735f60008201527f5f5f000000000000000000000000000000000000000000000000000000000000602082015250565b6000612f99602283611f0a565b9150612fa482612f3d565b604082019050919050565b60006020820190508181036000830152612fc881612f8c565b9050919050565b7f5f5f5f596f752061726520616c7265616479206120726567697374657265642060008201527f766f7465725f5f5f000000000000000000000000000000000000000000000000602082015250565b600061302b602883611f0a565b915061303682612fcf565b604082019050919050565b6000602082019050818103600083015261305a8161301e565b9050919050565b60008190508160005260206000209050919050565b60006020601f8301049050919050565b600082821b905092915050565b6000600883026130c37fffffffffffffffffffffffffffffffffffffffffffffffffffffffffffffffff82613086565b6130cd8683613086565b95508019841693508086168417925050509392505050565b6000819050919050565b600061310a61310561310084611e8d565b6130e5565b611e8d565b9050919050565b6000819050919050565b613124836130ef565b61313861313082613111565b848454613093565b825550505050565b600090565b61314d613140565b61315881848461311b565b505050565b5b8181101561317c57613171600082613145565b60018101905061315e565b5050565b601f8211156131c15761319281613061565b61319b84613076565b810160208510156131aa578190505b6131be6131b685613076565b83018261315d565b50505b505050565b600082821c905092915050565b60006131e4600019846008026131c6565b1980831691505092915050565b60006131fd83836131d3565b9150826002028217905092915050565b61321682611eff565b67ffffffffffffffff81111561322f5761322e6121aa565b5b6132398254612b2b565b613244828285613180565b600060209050601f8311600181146132775760008415613265578287015190505b61326f85826131f1565b8655506132d7565b601f19841661328586613061565b60005b828110156132ad57848901518255600182019150602085019450602081019050613288565b868310156132ca57848901516132c6601f8916826131d3565b8355505b6001600288020188555050505b505050505050565b600060c08201905081810360008301526132f98189611f56565b9050818103602083015261330d8188611f56565b905081810360408301526133218187611f56565b90506133306060830186611ef0565b81810360808301526133428185611f56565b905081810360a08301526133568184611f56565b9050979650505050505050565b6000815461337081612b2b565b61337a8186612bee565b9450600182166000811461339557600181146133aa576133dd565b60ff19831686528115158202860193506133dd565b6133b385613061565b60005b838110156133d5578154818901526001820191506020810190506133b6565b838801955050505b50505092915050565b60006133f28284613363565b915081905092915050565b7f5f5f5f496e76616c696420706f736974696f6e5f5f5f00000000000000000000600082015250565b6000613433601683611f0a565b915061343e826133fd565b602082019050919050565b6000602082019050818103600083015261346281613426565b9050919050565b7f5f5f5f43616e6e6f742072656769737465722063616e6469646174657320616660008201527f74657220656c656374696f6e2068617320737461727465645f5f5f0000000000602082015250565b60006134c5603b83611f0a565b91506134d082613469565b604082019050919050565b600060208201905081810360008301526134f4816134b8565b9050919050565b600060e082019050613510600083018a611ef0565b81810360208301526135228189611f56565b905081810360408301526135368188611f56565b9050818103606083015261354a8187611f56565b9050818103608083015261355e8186611f56565b905081810360a08301526135728185611f56565b905081810360c08301526135868184611f56565b90509897505050505050505056fea26469706673582212200f8883e32846fd23360a094655e8c6b56519c3cdda6c492946c3a50f739c14d764736f6c63430008180033",
  "linkReferences": {},
  "deployedLinkReferences": {}
}